{
  "_format": "hh-sol-artifact-1",
  "contractName": "Demo",
  "sourceName": "contracts/Demo.sol",
  "abi": [
    {
      "inputs": [],
      "name": "getter",
      "outputs": [
        {
          "internalType": "uint256",
          "name": "",
          "type": "uint256"
        }
      ],
      "stateMutability": "view",
      "type": "function"
    },
    {
      "inputs": [],
      "name": "num",
      "outputs": [
        {
          "internalType": "uint256",
          "name": "",
          "type": "uint256"
        }
      ],
      "stateMutability": "view",
      "type": "function"
    },
    {
      "inputs": [
        {
          "internalType": "uint256",
          "name": "_num",
          "type": "uint256"
        }
      ],
      "name": "setter",
      "outputs": [],
      "stateMutability": "nonpayable",
      "type": "function"
    }
  ],
  "bytecode": "0x6080604052348015600f57600080fd5b506101ee8061001f6000396000f3fe608060405234801561001057600080fd5b50600436106100415760003560e01c80634e70b1dc14610046578063993a04b714610064578063d423740b14610082575b600080fd5b61004e61009e565b60405161005b91906100dc565b60405180910390f35b61006c6100a4565b60405161007991906100dc565b60405180910390f35b61009c60048036038101906100979190610128565b6100ad565b005b60005481565b60008054905090565b6001816100ba9190610184565b60008190555050565b6000819050919050565b6100d6816100c3565b82525050565b60006020820190506100f160008301846100cd565b92915050565b600080fd5b610105816100c3565b811461011057600080fd5b50565b600081359050610122816100fc565b92915050565b60006020828403121561013e5761013d6100f7565b5b600061014c84828501610113565b91505092915050565b7f4e487b7100000000000000000000000000000000000000000000000000000000600052601160045260246000fd5b600061018f826100c3565b915061019a836100c3565b92508282019050808211156101b2576101b1610155565b5b9291505056fea2646970667358221220073a8d0eba58d2f4d74be66d294d61c8c481530c02d9210053ec35daeba5f87e64736f6c634300081c0033",
  "linkReferences": {},
  "deployedLinkReferences": {}
}